:0300000002012ECC
:0D000B00C28CC28D868C878AB283D28C3263
:10010000C001C0027AC879FFD9FEDAFAD002D00164
:1001100022C003C0047C02120100DCFBDBF7D00428
:10012000D00322E7F42401F7E6F43400F6227580C8
:10013000007881798275890175A8827B0A759000A3
:100140003111B297316EB2973111B297318CB297AB
:100150003111B29731AA311131B9311131D7311181
:1001600031F53111511331115122311180FE7610C8
:1001700077103123D28C3111C28CC28322760F7753
:100180000F3123D28C3111C28CC28322760E774577
:100190003123D28C3111C28CC28322760D775E312D
:1001A00023D28C3111C28CC28322760C77D33123B7
:1001B000D28C3111C28CC28322760C77033123D2C8
:1001C0008C3111C28CC28322760B77403123D28CC2
:1001D0003111C28CC28322760A77A83123D28C31A6
:1001E00011C28CC28322760977FA3123D28C311165
:1001F000C28CC28322760977903123D28C3111C20E
:100200008CC28322760877F53123D28C3111C28CCF
:0B021000C283227608777D3123D28C58
:10021B003111C28CC28322760777F13123D28C3114
:06022B0011C28CC2832207
:00000001FF
