:0E098000C102C180C101020D0000020B000087
:1009410012096C120909AD0AAF091209577F0A7E13
:06095100001208E880F02E
:1008E800D3EF9400EE648094804015E4FCFD0DBDC8
:1008F80000010CBC01F8BD7EF5EF1F70E31E80E01F
:0109080022CC
:10090900D2B4D2B543C32043C30143C31043C30880
:0C09190053C3FB43B104D2AF43C34022E0
:08099C00C2018FC53001FD22EC
:10095700AE05D2B5C2B4C2B512099CAF0612099C46
:05096700D2B5D2B4225C
:03004B0002092582
:10092500C0E0C0D075D000C007AFC4EF248070050B
:0C09350085C508D201D007D0D0D0E03238
:10096C00758C48758AE4758DEF758BB9758911D2C4
:04097C00A9D28C224E
:03001B0002098F48
:0D098F00C28E758DEF758BB9B202D28E321B
:03000B0002088C5C
:10088C00C0E0C0D0C28C758C48758AE430001CC3A3
:10089C00E50D94015011050EE50E7002050D740A5C
:1008AC00250CF50CE4801FC2008023D3E50E9400C8
:1008BC00E50D94004016E50E150E7002150D74F63C
:1008CC00250CF50C74FF350BF50B8002D200E50BF3
:0C08DC00F509850C0AD28CD0D0D0E03297
:03000000020800F3
:0C080000787FE4F6D8FD758120020847DF
:10080C00020941E493A3F8E493A34003F68001F2B8
:10081C0008DFF48029E493A3F85407240CC8C333ED
:10082C00C4540F4420C8834004F456800146F6DFBC
:10083C00E4800B0102040810204080900980E47EC3
:10084C00019360BCA3FF543F30E509541FFEE493B1
:10085C00A360010ECF54C025E060A840B8E493A378
:10086C00FAE493A3F8E493A3C8C582C8CAC583CAA3
:10087C00F0A3C8C582C8CAC583CADFE9DEE780BE5B
:01098E000068
:00000001FF
