:10097E00202026EFBEF18CF2FEF3CEF529F63FF7DE
:10098E0050F7DFF7DFF750F63FF529F3CEF2FEF121
:10099E008CEFBE012300C102C180C10102470000DD
:0409AE00022400001F
:100A38001209B3120A00AD46AF22120A4E7F0A7E8F
:060A4800001209DF80F03E
:1009DF00D3EF9400EE648094804015E4FCFD0DBDD0
:1009EF0000010CBC01F8BD7EF5EF1F70E31E80E027
:0109FF0022D5
:100A0000D2B4D2B543C32043C30143C31043C30888
:0C0A100053C3FB43B104D2AF43C34022E8
:080A7500C2018FC53001FD2212
:100A4E00AE05D2B5C2B4C2B5120A75AF06120A759A
:050A5E00D2B5D2B42264
:03004B00020A1C8A
:100A1C00C0E0C0D075D000C007AFC4EF2480700513
:0C0A2C0085C521D201D007D0D0D0E03227
:1009B300E4F547F548AF4874262FF8E6F549742760
:1009C3002FF8E6F523F58C85498A758DEF758BB97C
:0C09D300758911D2A9D28CD2ABD28E2231
:03001B00020937A0
:10093700C0E0C0F0C0D075D000C000C004C005C082
:1009470006C007C28E85238D85498BB202A202E4B9
:10095700FE33FFAC4AAD4B120A638E248F25E52484
:10096700F5228F46D28ED007D006D005D004D0000E
:07097700D0D0D0F0D0E03237
:03000B00020800E8
:10080000C0E0C0D075D000C000C007C28C758CD0CD
:10081000758A7130003BC3E54D9466E54C940050F9
:1008200011054DE54D7002054C741E254BF54BE44A
:10083000803AC3E54D94CCE54C9400500A054DE553
:100840004D705D054C8059C200754C01754D32806C
:100850004FD3E54D9400E54C94004016E54D154D01
:100860007002154C74F6254BF54B74FF354AF54A6A
:10087000802E74022548F548E43547F547D3E5480E
:10088000941FE54794004006754700754800AF483F
:1008900074262FF8E6F52374272FF8E6F549D200E1
:0B08A000D28CD007D000D0D0D0E032C6
:030000000208AB48
:0C08AB00787FE4F6D8FD75814D0208F25C
:100A6300EF8DF0A4A8F0CF8CF0A428CE8DF0A42EA7
:020A7300FE2261
:1008B700020A38E493A3F8E493A34003F68001F215
:1008C70008DFF48029E493A3F85407240CC8C33342
:1008D700C4540F4420C8834004F456800146F6DF11
:1008E700E4800B010204081020408090097EE47E1A
:1008F700019360BCA3FF543F30E509541FFEE49306
:10090700A360010ECF54C025E060A840B8E493A3CC
:10091700FAE493A3F8E493A3C8C582C8CAC583CAF7
:10092700F0A3C8C582C8CAC583CADFE9DEE780BEAF
:0109B2000044
:00000001FF
