:03000000020204F5
:10010000C001C0027AC879FFD9FEDAFAD002D00164
:1001100022C000C0047C0A120100DCFBD8F7D00426
:10012000D00022F5F0C3940AE5F0400424378002A1
:10013000243022C000C001C003E754F0C4120123E0
:10014000FEE7540F120123FF0908D003D001D000AD
:1001500022C000C001780179FFD9FED8FAD001D0C1
:10016000002275A001C280C281D2823151C2823187
:10017000512275A038C280C281D2823151C28231EF
:100180005175A00CC280C281D2823151C2823151DC
:1001900075A001C280C281D2823151C282315175B3
:1001A000A006C280C281D2823151C282315122C2A4
:1001B00080C281D2823151C282315122F5A0D280D7
:1001C000C281D2823151C28231513151227D0431FA
:1001D00033EE31BC3151EF31BC315109DDF122C078
:1001E00000C00178A07920E9F709D8FBD001D00040
:1001F000227AE07920E9F709DAFB22C297C296C297
:1002000095C29422315175810731F17590FF7802C2
:060210003111E59031FB05
:10021600C454F0F97C02317275A08331AF75A083A6
:1002260031AF31CD75A0C331AF31CD780A3111DC94
:03023600E580D28E
:00000001FF
