:080AAB004B65792069733A00E4
:100955001209ED7F047E001209687F80120A4F7F1D
:03096500047E000D
:10096800E4FDFCC3ED9FEC9E5015E4FBFA0BBB00C5
:0F097800010ABA01F8BB7EF50DBD00010C80E449
:01098700224D
:100A4F00C280C281D2828FA07F0A7E00120968C243
:020A5F008222F1
:100A6100D280C281D2828FA07F0A7E00120968C221
:020A71008222DF
:100988008B088A09890AAB08AA09A90A120A086009
:1009980013050AE50A7002050914F9120A08FF127C
:0509A8000A6180E2225B
:1009ED007F387E001209617F061209617F0C1209A2
:0B09FD00617F011209617F80020A4F38
:0A0AA100E4F5A0C282C280C28122E7
:100A39007590F0759DF0759C0FE4F59EE59E70FC30
:060A490075B101D2AF22DD
:1009AD00E4FDFCC3ED9FEC9E5015E4FBFA0BBB0080
:0F09BD00010ABA01F8BB7EF50DBD00010C80E404
:0109CC002208
:10080000E4F508F509F9F50AF50BFDFCFE7590F025
:10081000E590F454F0C4540FFFAB05A803EF088033
:1008200002C313D8FC30E0048D09800B0DBD00011C
:100830000CED64044C70E275900FE590F4540FFFDA
:10084000E4FCFDAB05A803EF088002C313D8FC301D
:10085000E004A905800B0DBD00010CED64044C7093
:10086000E2E50925E025E029F50A7590F0E590F428
:1008700054F0C4540FFFE4FCFDAB05A803EF08805F
:1008800002C313D8FC30E0048D09800B0DBD0001BC
:100890000CED64044C70E275900FE590F4540FFF7A
:1008A000E4FCFDAB05A803EF088002C313D8FC30BD
:1008B000E004A905800B0DBD00010CED64044C7033
:1008C000E2E50925E025E029F50BB50A01FE7430C3
:1008D0002EFEFDD39439748094804016ED944174BB
:1008E000809480500D74072EFE8007AF90EF64F067
:1008F00060057590F080F4E4F59EE59E70FCAF060F
:0109000022D4
:1009CD00120A39120AA11209ED750C75120A851257
:1009DD000955AF0C120A617F647E0012096880EF21
:03003B00020901B6
:10090100C0E0C083C082C0D075D000C000C001C0AB
:1009110002C003C004C005C006C0071208008F0C46
:100921001209557BFF7A0A79AB120988120964AF63
:100931000C120A617F647E00120968D007D006D0CC
:1009410005D004D003D002D001D000D0D0D082D0C5
:0409510083D0E0323D
:100A7300758DCC758BCC438920D28ED2AFD2ACC2CC
:020A8300AB22A4
:100A85004398C0850C99E50CA2D0B3929B020A73DA
:03002300020A21AD
:100A2100C0E0C0D030990C850C99E50CA2D0B392EE
:080A31009BC299D0D0D0E03245
:03000000020A955C
:0C0A9500787FE4F6D8FD75810C0209CDD5
:100A0800BB010689828A83E0225002E722BBFE02EC
:090A1800E32289828A83E493221F
:00000001FF
