:080A8B004B65792069733A0004
:07095000120A1E7F047E0065
:10095700E4FDFCC3ED9FEC9E5015E4FBFA0BBB00D6
:0F096700010ABA01F8BB7EF50DBD00010C80E45A
:01097600225E
:100A1E00C280C281D2828FA07F0A7E00120957C285
:020A2E00822222
:100A3000D280C281D2828FA07F0A7E00120957C263
:020A4000822210
:100977008B088A09890AAB08AA09A90A1209D7604C
:1009870013050AE50A7002050914F91209D7FF12BF
:050997000A3080E2229D
:1009BC007F387E001209507F061209507F0C1209F5
:0B09CC00507F011209507F80020A1EBC
:0A0A8100E4F5A0C282C280C2812207
:100A08007590F0759DF0759C0FE4F59EE59E70FC61
:060A180075B101D2AF220E
:10099C00E4FDFCC3ED9FEC9E5015E4FBFA0BBB0091
:0F09AC00010ABA01F8BB7EF50DBD00010C80E415
:0109BB002219
:10080000E4F508F9FFF509F50AFDFCFB7590F0E544
:1008100090F454F0C4540FFEAA05EEA8020880021A
:10082000C313D8FC30E004A905800B0DBD00010CFA
:10083000ED64044C70E275900FE590F4540FFEE403
:10084000FCFDAA05EEA802088002C313D8FC30E024
:1008500004AF05800B0DBD00010CED64044C70E28B
:10086000E925E025E02FF5097590F0E590F454F0C6
:10087000C4540FFEE4FCFDAA05EEA802088002C3E2
:1008800013D8FC30E004A905800B0DBD00010CED70
:1008900064044C70E275900FE590F4540FFEE4FC94
:1008A000FDAA05EEA802088002C313D8FC30E004BC
:1008B000AF05800B0DBD00010CED64044C70E2E946
:1008C00025E025E02FF50AB50901FB74302BFBD399
:1008D00094394011EB9441500C74072BFB8006E5D2
:1008E0009064F060057590F080F5E4F59EE59E70EB
:0308F000FCAF0357
:0108F30022E2
:100A5400120A08120A811209BC750B41120A658038
:010A6400FE93
:03003B000208F4C4
:1008F400C0E0C083C082C0D075D000C000C001C0B9
:1009040002C003C004C005C006C0071208008F0B54
:100914001209BC1209537F801209507BFF7A0A79AD
:100924008B120977120953AF0B120A307F647E00D1
:10093400120957D007D006D005D004D003D002D076
:0C09440001D000D0D0D082D083D0E032AF
:100A4200758DCC758BCC438920D28ED2AFD2ACC2FD
:020A5200AB22D5
:100A65004398C0850B99E50BA2D0B3929B020A422D
:030023000209F0DF
:1009F000C0E0C0D030990C850B99E50BA2D0B39222
:080A00009BC299D0D0D0E03276
:03000000020A757C
:0C0A7500787FE4F6D8FD75810B020A546E
:1009D700BB010689828A83E0225002E722BBFE021E
:0909E700E32289828A83E4932251
:00000001FF
