:0300000002016694
:03000B0002015699
:03000300020100F7
:10010000C28CDA051201147A047B00758C00758AA2
:1001100000D28C3274805138900266515831DA74B2
:10012000C05138900272515831DA75F021EBA4FDBC
:1001300075F021E58CA475F0FF842DFD8D60120112
:10014000422212019CE5401202471201DAE54112F7
:1001500002471201DA22C28CC0E0758C00758A0059
:100160000BD28CD0E03212017631EB31DA7481514E
:100170003831DA02017375890975880175A88375AC
:100180008C00758A007A017B00755240755160D2EF
:100190008C22E7540FFEE7C4540FFC22C000C001BC
:1001A000C004C006A852A951120192ECC3940A508F
:1001B00008EC2430F6080201BEEC2437F608EEC342
:1001C000940A5008EE2430F6080201D1EE2437F6E6
:1001D00008D006D004D001D00022C000C0017801B0
:1001E00079FFD9FED8FAD001D0002275A038C2809C
:1001F000C281D28231DAC28231DA75A00CC280C2E9
:1002000081D28231DAC28231DA75A001C280C28124
:10021000D28231DAC28231DA75A006C280C281D2BE
:050220008231DAC28208
:1002250031DA2275A001C280C281D28231DAC2825E
:1002350031DA22F5A0C280C281D28231DAC282319E
:10024500DA22F5A0D280C281D28231DAC28231DAD5
:1002550031DA22C0E0E49360055147A380F7D0E08E
:100265002250554C534520574944544800434F5557
:070275004E54204953200004
:00000001FF
