:03000000020800F3
:0C080000787FE4F6D8FD758149020847B6
:1008CF0020222607FF0B0F0DA70F630FFF0F630DDE
:1008DF00A70B0F07FF04EF0257009B0000009B02BE
:0D08EF005704EF07FFC180C101024800005F
:0F096B0012097A12091EAD23AF2212095680F726
:1008FD00D3EF9400EE648094804015E4FCFD0DBDB3
:10090D0000010CBC01F8BD7EF5EF1F70E31E80E009
:01091D0022B7
:10091E00D2B4D2B543C32043C30143C31043C3086B
:0C092E0053C3FB43B104D2AF43C34022CB
:08098800C2018FC53001FD2200
:10095600AE05D2B5C2B4C2B5120988AF061209886F
:05096600D2B5D2B4225D
:03004B0002093A6D
:10093A00C0E0C0D075D000C007AFC4EF24807005F6
:0C094A0085C521D201D007D0D0D0E0320A
:0E097A00758C48758AE4758901D2A9D28C2249
:03000B0002088C5C
:10088C00C0E0C0D075D000C000C28C758CFE758ADB
:10089C0020C3E549940FE5489400500A0549E54901
:1008AC00700C05488008754800754900E54925E03D
:1008BC002426F8E6F52408E6F525D28CD000D0D015
:0308CC00D0E03247
:10080C0002096BE493A3F8E493A34003F68001F28E
:10081C0008DFF48029E493A3F85407240CC8C333ED
:10082C00C4540F4420C8834004F456800146F6DFBC
:10083C00E4800B01020408102040809008CFE47E75
:10084C00019360BCA3FF543F30E509541FFEE493B1
:10085C00A360010ECF54C025E060A840B8E493A378
:10086C00FAE493A3F8E493A3C8C582C8CAC583CAA3
:10087C00F0A3C8C582C8CAC583CADFE9DEE780BE5B
:0108FC0000FB
:00000001FF
