:0714AC0025312E33660A0012
:0414B300022700000C
:10143000121482E4F53CF53BF53AF539F540F53FF9
:10144000F53EF53DF534F533F532F531F538F53740
:0B14500075362075354012149A80FE9E
:101482004398C0758DFF758BFF53877F438920D2A8
:08149200AFC2ACC2ABD28E2246
:10149A00438901758CD5758A2CD2A9D2AFC2B7D22D
:0214AA008C2292
:03000B0002120AD4
:10120A00C0E0C0F0C083C082C0D075D000C000C0AA
:10121A0001C002C003C004C005C006C007C28C7F5B
:10122A00AC7EC57D477C3EAB38AA37A936A83512B5
:10123A0008F8C004C005C006C0077F667E147D7B1F
:10124A007C3FAB34AA33A932A8311208F8D003D0B4
:10125A0002D001D0001208078F3C8E3B8D3A8C39A0
:10126A007FAC7EC57D477C3EAB34AA33A932A83118
:10127A001208F8C004C005C006C0077F667E147D48
:10128A007B7C3FAB38AA37A936A8351208F8D003B9
:10129A00D002D001D0001208038F408E3F8D3E8CC1
:1012AA003D853C34853B33853A328539318F388EDA
:1012BA00378D368C35E4FFFE7D207C40AB34AA3373
:1012CA00A932A8311208078F308E2F8D2E8C2D123D
:1012DA001301758CD5758A1CB2B7D28CD007D0068B
:1012EA00D005D004D003D002D001D000D0D0D08213
:0712FA00D083D0F0D0E032F8
:101301007544FF7545147546AC8F4A8E498D488CDE
:10131100477B007A007922120DF7E4F527F528744E
:10132100222528F8E6FCE4120A088F2C8E2B8D2A40
:101331008C29E4FC120A08AB2CAA2BA92AA8291291
:101341000807120A3CEFE5D024FF929BAF2CAE2B8D
:10135100AD2AAC29120A3C8F993099FDC299052812
:10136100E528700205276405452770B3E4F52CF5DF
:101371002B752A20752941FC120A08AB2CAA2BA92E
:101381002AA829120807120A3CEFE5D024FF929BF4
:10139100AF2CAE2BAD2AAC29120A3C8F993099FDA6
:0313A100C29922CC
:10080000020AA8E86480F8E933E83360110460F074
:10081000ED33EC337009E8FCE9FDEAFEEBFF22045E
:1008200060DED3EB9FEA9EE99DE8C2E78CF0C2F759
:1008300095F0400CE8CCF8E9CDF9EACEFAEBCFFB25
:10084000120A7385D0F05804700320D5B3E8047001
:10085000075002B2D5020AB292D5EC0460F7E4CC9C
:10086000C0E0C398F8603B94186008400DD0E0FBEE
:10087000020A8AE4FBFAC9FC8028E830E406E4C9ED
:10088000FBE4CAFCE830E305E4C9CACBFCE8540742
:100890006010F8C3E913F9EA13FAEB13FBEC13FC4D
:1008A000D8F130F52FC3E49CFCEF9BFFEE9AFEEDF0
:1008B00099FDD0E0FBEF4E4D4C701222DB03020A93
:1008C000AFEC2CFCEF33FFEE33FEED33FDED30E704
:1008D000EB020A8AEF2BFFEE3AFEED39FDD0E0FB8A
:1008E00050130BBB0003020AB2ED13FDEE13FEEF33
:0808F00013FFEC13FC020A8A5D
:1008F800EC4D6011E8497017ED33EC3304600DE4FA
:10090800FCFFFEFD22E933E8330470F8020AA8125E
:100918000A7358046009E4CC24815006285009025F
:100928000AB2284003020AAFC0E0EB4A7044B9801B
:1009380006D0E0FB020A9EEF4E701CBD8008EBFF5C
:10094800EAFEE9FD80EBE98DF0A4FEE5F00209E19D
:10095800E9CDF9EAFEEBFFEF89F0A4FCE5F0CE89DA
:10096800F0A42EFFE435F0CD89F0A42DFEE435F097
:100978008067EF4E7005BD80D780C3EF8BF0A4ACC5
:10098800F0EE8BF0A42CFCE435F0F8EF8AF0A42C00
:10099800E5F038FCE433CB8DF0A42CFCE5F03BF813
:1009A800EE8AF0A42CFCE5F038F8E433CF89F0A403
:1009B8002CFCE5F038CF3400CE89F0A42FFFE5F009
:1009C8003EFEE433C98DF0A42EFEE5F039CD8AF061
:1009D800A42FFFE5F03EFEE43DFD33D0E0FB5007D9
:1009E8000BBB000F020AB2EC2CFCEF33FFEE33FE18
:0609F800ED33FD020A8A46
:1009FE0075F020800E75F010800575F0087D007E74
:100A0E00007F003392D530D503120D57EC334010D2
:100A1E00EF33FFEE33FEED33FDEC33FCD5F0ED227C
:0E0A2E00E5F0247EA2D513CC92E7CDCEFF22B8
:100A3C00EDD2E7CD33EC3392D524814006E4FFFEB2
:100A4C00FDFC22FCE4CFCECDCC24E0501174FF8011
:100A5C00EDC3CC13CCCD13CDCE13CECF13CF0470AE
:070A6C00F030D5DE020D574A
:100D9B00E5582444F8E60558227841300702784498
:100DAB00E475F001120D65020CFF2000EB7F2ED2D3
:100DBB00008018EF540F2490D43440D4FF30040B30
:100DCB00EF24BFB41A0050032461FFE559600215EC
:100DDB0059055CE55C7002055B30070D7841E475E5
:100DEB00F001120D65EF020D4502145B7403D2077F
:100DFB008003E4C207F5588B418A428943E4F559D5
:100E0B00F55BF55CE55960077F20120DD680F57513
:100E1B005AFFC201C200C202C203C205C206C20807
:100E2B00120DA4FF700D3007057F00120DE7AF5CAC
:100E3B00AE5B22B4255FC2D5C204120DA4FF24D031
:100E4B00B40A00501A75F00A785930D50508B6FF68
:100E5B000106C6A426F620D5047002D20380D9243D
:100E6B00CFB41A00EF5004C2E5D2040210D4D20161
:100E7B0080C6D20080C0D20280BCD2D580BAD20547
:100E8B0080B47F20120DD62002077401B5590040A3
:100E9B00F1120D9BFF120DD6020E0FD208D2068057
:100EAB0095120D9BFB120D9BFA120D9BF94A4B7081
:100EBB000679CB7A117BFF20022EE559602A7E0042
:100ECB008E82758300120D1860060EEE655A70F057
:100EDB00C2D5EBC0E0EAC0E0E9C0E0EE121134D0BD
:100EEB00E0F9D0E0FAD0E0FB120CFFFF60AAEBC0F8
:100EFB00E0EAC0E0E9C0E0120DD6D0E02401F9D061
:100F0B00E03400FAD0E0FBE55A0460DCD55AD98016
:100F1B0087D20280A212111760F7E55A70010412F2
:100F2B000ABDA95A600DE55A600914F55A1211BE93
:100F3B00EF60F3EA30E702F404C3995077EAF42543
:100F4B005A0430E701E404F55A800D12111760C101
:100F5B00EA055A255A120ABDEA7857F630E701E43A
:100F6B00255A04D55A0420050114121134E4C0E0AB
:100F7B001211BE7857E6601320E70714F6120DBE68
:100F8B00802204F6D0E014C0E07F00120DBEE55ABB
:100F9B006007120DB5155A800B300503120DB5D035
:100FAB00E0020E0FD0E00480C512111760A0E55AC5
:100FBB0004120ABD7857EAF6E55A200502600104CF
:050FCB002404121134A2
:100FD00074FF04C0E01211BE120DBEE55A200502D6
:100FE0006003120DB5D0E0B55AE87F45120DC87800
:100FF00057E67F2B30E7047F2DF404C0E0120DD6B6
:10100000D0E075F00A84C0F0120DBFD0E0120DBF21
:10101000020E0F791080027908C206C2088008D239
:10102000D5790A8004790AC2D5E55A047002F55AC6
:10103000E4FAFDFEFF120D9BFC7B08200113120D4C
:101040009BFD7B1030000A120D9BFE120D9BFF7B57
:1010500020EC3382D592D55013C3E43000069FFFB5
:10106000E49EFEE42001039DFDE49CFCE4CBF8C279
:1010700001EC700CCFCECDCCE824F8F870F38017DB
:10108000C3EF33FFEE33FEED33FDEC33FCEB33FB0C
:10109000994002FB0FD8E9EB300105F8D0E0C448D5
:1010A000B201C0E00AEC4D4E4F78207B0070C2EADE
:1010B000B55A0040BCC0E0121136D0F0D0E020019B
:1010C00004C4C0E0C4B201C0F0120DBFD0F0D5F02E
:1010D000EB020E0F120D750EAC531013580E7D4C13
:1010E0000E794210174F101F44101F490E924310E3
:1010F00025550F56460FB4450F204711EB500E8172
:101100002D0E852E0EA82B0E89230EA62011D42A73
:101110000E414800000EA0E55AB4FF03755A0612AE
:101120000D9BFC120D9BFD120D9BFE120D9BFF787B
:1011300050020AEC790AA2D5200314300509B9102F
:10114000020404B9080104A2D520060250010420BB
:1011500002689202B559005034C0E07F2030031974
:101160007F30A20272067205500F12118DC202C2A8
:1011700006C205C2087F30800F300503E9C0E012C7
:101180000DD6300503D0E0F9D0E0B559CC300517C5
:101190007F30B9100C120DD67F583004077F78804D
:1011A00003B90803120DD63002057F2D020DD67F3C
:1011B000202008F87F2B2006F322920280CF7F00A8
:1011C000B4070050052450F8E6FF22286E756C6CB9
:1011D0002900D201120D9B3001F8C201785930D597
:1011E0000108F6020E412D50434958120D9B24036D
:1011F000B405004001E49011E693120DC7743A1251
:0A1200000DC7D20375590402101344
:100A7300E9D2E7C933E833F892D5EDD2E7CD33ECC9
:070A830033FC5002B2D52242
:100A8A00EC30E7100FBF000C0EBE00080DBD0004CD
:100A9A000BEB6014A2D5EB13FCED92E7FD2274FF79
:100AAA00FCFDFEFF22E480F8A2D574FF13FC7D80D2
:030ABA00E480EFE6
:100ABD00F920E72824F950037907E4F42402FB1800
:100ACD00DBFDE624FB5014E9600DE4F618E604F6B0
:0F0ADD00B40A08E4F6D9F57401F60A22C2D5224C
:100AEC00ED33EC3392D5FA602AB4FF33EDC2E77BD9
:100AFC00FF60067A0B7911E4227A0B791A20D5045F
:100B0C007A0B7915224E614E002B494E46002D4929
:100B1C004E4600E47A08F608DAFC7B00740722E8FB
:100B2C00C0E0ECC0E0EDC0E0EEC0E0EFC0E0EA7584
:100B3C00F010A4CAABF075F04DA42BFBE435F0FC1F
:100B4C00EA2410FAEB34C5FBEC34D9FCEDC2E7FF18
:100B5C0075F056A4F42411C5F0F434C58FF0A42A12
:100B6C00E5F03BE43CF620E714120CBFD0E0FFD0DC
:100B7C00E0FED0E0FDD0E0FC120BF28014F4041285
:100B8C000CBFD0E0FFD0E0FED0E0FDD0E0FC1208BE
:100B9C00F8D0E0F8E6FAEDD2E7CD33EC332482FB63
:100BAC00E4C3CF33CFCE33CECD33CD33DBF37B07A2
:100BBC0075F00A846004F6081B0AE5F0F6088FF05D
:100BCC00740AA4FFACF08EF0740AA42CFEACF050A6
:100BDC00010C8DF0740AA42CFDE435F0F608DBDE74
:030BEC0074072269
:100BEF00020AB2EC5D046005E859047003020AA81A
:100BFF00120A73580460F6EC4860F2EC7004FDFEC4
:100C0F00FF22C860DB2481C85009C39860025006D8
:100C1F00020AAF9850CAF582E9294B4A7005AB8298
:100C2F00020A9E75F0007C1A7880C3EF9BEE9AED56
:100C3F0099400DC3EF9BFFEE9AFEED99FDE842F050
:100C4F00DC23ACF0D0E0FFD0E0FED0E0FDAB8220A3
:100C5F00E7101BEB60BAEC2CFCEF33FFEE33FEED2D
:100C6F0033FD020A8AE803F830E705C0F075F0009B
:100C7F00EF2FFFEE33FEED33FD40B830E7C280AA11
:100C8F003F8000004120000042C80000447A00006D
:100C9F00461C400047C35000497424004B189680EF
:100CAF004CBEBC205A0E1BCA6753C21C749DC5AEE6
:100CBF00FB60065407601C2323120CEDEB543860C5
:100CCF0009120CD9120CE81208F8ECF8EDF9EEFA4B
:100CDF00EFCB22EB120CE880F1543803241C900C5C
:100CEF008FFE93FC0EEE93FD0EEE930ECE93FF222E
:030000000213A444
:0C13A400787FE4F6D8FD75815C0213EB45
:100CFF00BB010689828A83E0225002E722BBFE02F3
:090D0F00E32289828A83E4932225
:100D1800BB010CE58229F582E5833AF583E0225090
:100D280006E92582F8E622BBFE06E92582F8E222DA
:0D0D3800E58229F582E5833AF583E49322F4
:100D4500BB010689828A83F0225002F722BBFE018D
:020D5500F32287
:0E0D5700C3E49FFFE49EFEE49DFDE49CFC22AD
:100D6500FAE6FB0808E6F925F0F618E6CA3AF6228F
:100D7500D083D082F8E4937012740193700DA3A30D
:100D850093F8740193F5828883E473740293686021
:060D9500EFA3A3A380DF21
:10145B00EFB40A07740D121466740A309811A89928
:10146B00B8130CC2983098FDA899C298B811F630F1
:07147B0099FDC299F59922C9
:1013B000021430E493A3F8E493A34003F68001F20F
:1013C00008DFF48029E493A3F85407240CC8C3333E
:1013D000C4540F4420C8834004F456800146F6DF0D
:1013E000E4800B01020408102040809014B3E47ED6
:1013F000019360BCA3FF543F30E509541FFEE49302
:10140000A360010ECF54C025E060A840B8E493A3C8
:10141000FAE493A3F8E493A3C8C582C8CAC583CAF3
:10142000F0A3C8C582C8CAC583CADFE9DEE780BEAB
:0114B7000034
:00000001FF
