:03000000020020DB
:0300030002003FB9
:02000B000A32B7
:100020007581CF74007A0078507951758C00758A8B
:100030000075A88375B80175890975881180FEC29D
:100040008C858C52858A518A50E58CB400028003DD
:100050001200607A00758C00758A00D28C740132AF
:10006000C0E0C001C000C0031200EC120136120152
:100070001374801201139001AD12019E120113122C
:100080000113748912011312011312017B7B06798B
:1000900060E712011312018A78021200B9120113EB
:1000A00009DBEE78021200CA12012478021200CA9B
:1000B000D003D000D001D0E022C001C0027AC879BC
:1000C000FFD9FEDAFAD002D00122C000C0047C0AB7
:1000D0001200B9DCFBD8F7D004D00022F5F0C394AD
:1000E0000AE5F0400424378002243022C000C00119
:1000F000C0037B0379507860E754F0C41200DCF64B
:1001000008E7540F1200DCF60908DBECD003D0013D
:10011000D00022C000C001780179FFD9FED8FAD002
:1001200001D0002275A001C280C281D282120113C7
:10013000C2821201132275A038C280C281D28212FB
:100140000113C28212011375A00CC280C281D28237
:10015000120113C28212011375A001C280C281D2A2
:0401600082120113F3
:10016400C28212011375A006C280C281D28212011A
:1001740013C28212011322C280C281D282120113DD
:10018400C28212011322F5A0D280C281D28212014E
:1001940013C28212011312011322C0E0E493600619
:1001A40012018AA380F6D0E022434F554E542049D1
:1001B400533A200050554C53452057494454483A2B
:0101C400003A
:00000001FF
