:100DD100C100C101C102043500000000044C000043
:100DE1000000043A00000000042200000000042674
:100DF1000000000002410000023E0000022A000043
:100E0100022F0000012C00014300044800000000F3
:100D6600D294439020120F22120ECB120EB0C294D0
:100D7600E4F5C53000FD85212EC200E4F5C530003E
:100D8600FD852140C200D294E540C413135403F5F7
:100D960040E4852E25F524F523F522AF25AE24ADB6
:100DA60023AC227802120BB28F258E248D238C223F
:100DB600E4FCFDFEE5252540F525EE3524F524ED7C
:0B0DC6003523F523EC3522F52280A335
:03004B00020E940E
:100E9400C0E0C0D075D000C007AFC4EF2480700597
:0C0EA40085C521D200D007D0D0D0E032AC
:03000B00020BC520
:100BC500C0E0C0F0C083C082C0D075D000C000C0F6
:100BD50001C002C003C004C005C006C007C28C75B1
:100BE5008C00758AE0052CE53D2525F53DE53C3570
:100BF50024F53CE53B3523F53BE53A3522F53AE569
:100C05002C640A6003020CBD7B0AFAF9F8AF3DAE0D
:100C15003CAD3BAC3A120B128E418F42AC41AD421A
:100C2500E4120A03E4FBFA799C78411208F8E4FB24
:100C3500FA792F78C31208077B8F7AC27985783FB6
:100C45001208F8120A3C8F388E378D368C35753977
:100C550083754300D3E543940374809480504AAF71
:100C650039120EE57F057E00120E73E47B0AFAF950
:100C7500F8AF38AE37AD36AC35120B12EB2430FF7A
:100C8500120EFB7F057E00120E73AF38AE37AD3600
:100C9500AC35E47B0AFAF9F8120B128F388E378DD2
:100CA500368C351539054380AB752C00753D0075BF
:100CB5003C00753B00753A00D28CD007D006D005B4
:100CC500D004D003D002D001D000D0D0D082D083C0
:050CD500D0F0D0E03278
:100ECB00D29443C32043C30143C31053C3F743C35B
:0A0EDB000443B104D2AF43C3402228
:0E0F2200758CB1758AE0758901D2A9D28C2236
:100EB0007F647E00120E1A7F38120EE57F0C120E30
:0B0EC000E57F01120EE57F80020EE5C9
:100EE5008F0D120F11850DA0C280120E12C2827FC6
:060EF500057E00020E1A4A
:100EFB008F0C120F11850CA0D280120E12C2827FA2
:060F0B00057E00020E1A33
:100E43008B088A09890A8D0BD3E50B94007480946F
:100E530080401CAB08AA09A90A120ABDFF120EFBA7
:100E63007401250AF50AE43509F509150B80D92221
:100F110075A0FFC280D281C282120E16D282C28215
:010F210022AD
:080E1200C281D2827F057E003F
:100E1A00D3EF9400EE64809480401DE4FDEDFB3333
:100E2A0095E0FAC3EB9405EA6480948050030D8040
:080E3A00ECEF1F70DB1E80D8F5
:010E4200228D
:100E7300D3EF9400EE648094804015E4FCFD0DBD37
:100E830000010CBC01F8BD7EF5EF1F70E31E80E08E
:010E9300223C
:10080000020AA8E86480F8E933E83360110460F074
:10081000ED33EC337009E8FCE9FDEAFEEBFF22045E
:1008200060DED3EB9FEA9EE99DE8C2E78CF0C2F759
:1008300095F0400CE8CCF8E9CDF9EACEFAEBCFFB25
:10084000120A7385D0F05804700320D5B3E8047001
:10085000075002B2D5020AB292D5EC0460F7E4CC9C
:10086000C0E0C398F8603B94186008400DD0E0FBEE
:10087000020A8AE4FBFAC9FC8028E830E406E4C9ED
:10088000FBE4CAFCE830E305E4C9CACBFCE8540742
:100890006010F8C3E913F9EA13FAEB13FBEC13FC4D
:1008A000D8F130F52FC3E49CFCEF9BFFEE9AFEEDF0
:1008B00099FDD0E0FBEF4E4D4C701222DB03020A93
:1008C000AFEC2CFCEF33FFEE33FEED33FDED30E704
:1008D000EB020A8AEF2BFFEE3AFEED39FDD0E0FB8A
:1008E00050130BBB0003020AB2ED13FDEE13FEEF33
:0808F00013FFEC13FC020A8A5D
:1008F800EC4D6011E8497017ED33EC3304600DE4FA
:10090800FCFFFEFD22E933E8330470F8020AA8125E
:100918000A7358046009E4CC24815006285009025F
:100928000AB2284003020AAFC0E0EB4A7044B9801B
:1009380006D0E0FB020A9EEF4E701CBD8008EBFF5C
:10094800EAFEE9FD80EBE98DF0A4FEE5F00209E19D
:10095800E9CDF9EAFEEBFFEF89F0A4FCE5F0CE89DA
:10096800F0A42EFFE435F0CD89F0A42DFEE435F097
:100978008067EF4E7005BD80D780C3EF8BF0A4ACC5
:10098800F0EE8BF0A42CFCE435F0F8EF8AF0A42C00
:10099800E5F038FCE433CB8DF0A42CFCE5F03BF813
:1009A800EE8AF0A42CFCE5F038F8E433CF89F0A403
:1009B8002CFCE5F038CF3400CE89F0A42FFFE5F009
:1009C8003EFEE433C98DF0A42EFEE5F039CD8AF061
:1009D800A42FFFE5F03EFEE43DFD33D0E0FB5007D9
:1009E8000BBB000F020AB2EC2CFCEF33FFEE33FE18
:0609F800ED33FD020A8A46
:1009FE0075F020800E75F010800575F0087D007E74
:100A0E00007F003392D530D503120BA4EC33401087
:100A1E00EF33FFEE33FEED33FDEC33FCD5F0ED227C
:0E0A2E00E5F0247EA2D513CC92E7CDCEFF22B8
:100A3C00EDD2E7CD33EC3392D524814006E4FFFEB2
:100A4C00FDFC22FCE4CFCECDCC24E0501174FF8011
:100A5C00EDC3CC13CCCD13CDCE13CECF13CF0470AE
:070A6C00F030D5DE020BA4FF
:100A7300E9D2E7C933E833F892D5EDD2E7CD33ECC9
:070A830033FC5002B2D52242
:100A8A00EC30E7100FBF000C0EBE00080DBD0004CD
:100A9A000BEB6014A2D5EB13FCED92E7FD2274FF79
:100AAA00FCFDFEFF22E480F8A2D574FF13FC7D80D2
:030ABA00E480EFE6
:03000000020CDA15
:0C0CDA00787FE4F6D8FD75814F020D21F3
:100ABD00BB010689828A83E0225002E722BBFE0237
:090ACD00E32289828A83E493226A
:100AD60075F008758200EF2FFFEE33FECD33CDCCD7
:100AE60033CCC58233C5829BED9AEC99E58298405A
:100AF6000CF582EE9BFEED9AFDEC99FC0FD5F0D637
:100B0600E4CEFBE4CDFAE4CCF9A88222B800C1B960
:100B16000059BA002DEC8BF084CFCECDFCE5F0CB9E
:100B2600F97818EF2FFFEE33FEED33FDEC33FCEBD7
:100B360033FB10D703994004EB99FB0FD8E5E4F992
:100B4600FA227818EF2FFFEE33FEED33FDEC33FC7F
:100B5600C933C910D7059BE99A4007EC9BFCE99A73
:100B6600F90FD8E0E4C9FAE4CCFB2275F010EF2FB8
:100B7600FFEE33FEED33FDCC33CCC833C810D707B8
:100B86009BEC9AE899400AED9BFDEC9AFCE899F8F3
:0E0B96000FD5F0DAE4CDFBE4CCFAE4C8F92286
:0E0BA400C3E49FFFE49EFEE49DFDE49CFC2262
:100BB200E8600FEFC333FFEE33FEED33FDEC33FCA1
:030BC200D8F12245
:100CE600020D66E493A3F8E493A34003F68001F2B1
:100CF60008DFF48029E493A3F85407240CC8C3330F
:100D0600C4540F4420C8834004F456800146F6DFDD
:100D1600E4800B0102040810204080900DD1E47E8F
:100D2600019360BCA3FF543F30E509541FFEE493D2
:100D3600A360010ECF54C025E060A840B8E493A399
:100D4600FAE493A3F8E493A3C8C582C8CAC583CAC4
:100D5600F0A3C8C582C8CAC583CADFE9DEE780BE7C
:010E110000E0
:00000001FF
