:10010000C002C0017AC879FFD9FEDAFAD001D00264
:1001100022C0037B64120100DBFBD00322C0037BFF
:1001200014120100DBFBD0032231B675A001C2809E
:10013000C281D28231B6C28231B62275A038C28065
:10014000C281D28231B6C28231B675A00CC280C2E1
:1001500081D28231B6C28231B675A001C280C2811D
:10016000D28231B6C28231B675A006C280C281D2B7
:100170008231B6C28231B622F5A0C280C281D2825B
:1001800031B6C28231B622F5A0D280C281D282318C
:10019000B6C28231B631B622C0E0E4936005318741
:1001A000A380F7D0E022C0E01201C7E54C3187E51B
:1001B0004D3187D0E022C000C001780179FFD9FE1F
:1001C000D8FAD001D00022C000C001A94B784CE77A
:1001D00054F0C4C3940A400750001201FA8003127D
:1001E000020208E7540FC3940A4007500012020AA3
:1001F0008003120211D001D00022E754F0C424374A
:10020000F622E754F0C42430F622E7540F2437F6E0
:0802100022E7540F2430F6220E
:03000000020500F6
:0300030002085997
:03000B0002084D9B
:10050000758C00758A007589097A007D007E0075FA
:09051000881175A88380FE80FEAD
:100800001201B61201B612013B1201B61201B61264
:1008100001B6748312017890087A1201981201B619
:100820001201B61201B674C1120178900886120145
:10083000981201B6754B701201A61201B6754B7174
:100840001201A61201B6754B721201A622C28C0AC1
:10085000758C00758A00D28C32C28CAC8CAB8A0D40
:10086000BD050C7D008A708C718B721208000E75AC
:100870008C00758A007A00D28C3250554C5345203A
:10088000574944544800434F554E54204953200083
:00000001FF
