:03000000020200F9
:1002000075A00075900051955195512E51955195BD
:1002100051957483516B5195900300518B51957496
:10022000C5516B519590030B518B519580FE75A074
:1002300038C280C281D2825195C282519575A00C7C
:10024000C280C281D2825195C282519575A001C2ED
:1002500080C281D2825195C282519575A006C2801A
:10026000C281D2825195C282519522F5A0C280C22C
:1002700081D2825195C282519522F5A0D280C2814D
:10028000D2825195C2825195519522E493600551D5
:100290007AA380F722C000C001780179FFD9FED887
:0602A000FAD001D000229B
:1003000045453333372D4C61623400486172736860
:0103100000EC
:00000001FF
