:0300000002028079
:10010000F5F0C3940AE5F04004243780022430223D
:10011000C000C001C003AB50A8517960E654F0C4E0
:10012000120100F709E6540F120100F70908DBEC91
:10013000D003D001D00022C000C001780179FFD9DE
:10014000FED8FAD001D0002275A001C280C281D2AF
:100150008231C6C28231C62275A038C280C281D225
:10016000823137C282313775A00CC280C281D282FF
:100170003137C282313775A001C280C281D282314B
:10018000C6C282313775A006C280C281D2823137A1
:10019000C282313722F5A0C280C281D28231C6C26A
:1001A00082313722F5A0D280C281D28231C6C2828A
:1001B0003137313722C001C0027AC879FFD9FEDA5F
:1001C000FAD002D00122C000C0047C0A1201B5DCC2
:1001D000FBD8F7D004D00022D297D296D295D294F1
:1001E00022C297C296C295C29422C000C0021201D8
:1001F000D8780A1201C61201E178021201C6E59010
:10020000540FF5F0C4240FF590780A1201C630900F
:10021000DD1201E178021201C6A7F0D002D000225F
:04022000C0E0E54E07
:10022400C4254FF6D0E022AA50A851794E31EA09EC
:1002340031EA512008DAF431E122780231C675A09E
:100244000075900031583137313774833195313727
:100254007590FF780431C6E59031E1540FFCC395E5
:10026400505012EC2C2460F9E731A4313709E731FE
:10027400A478048002314831C680C92275500275C1
:0A0284005152512B3110513E80FE03
:00000001FF
